:03000000020006F5
:0C000600787FE4F6D8FD75812002004DE3
:0B027D003F065B4F666D7D077F6F80C2
:0E026E00C10002080000020F0000020D000097
:10023200D3EF9400EE6480948040147D6E7C00EDD8
:0F0242001D70011CED4C70F7EF1F70E41E80E182
:01025100228A
:10025200D2B5000000000000000000000000000015
:0C026200000000000000000000C2B522F7
:10020C00AF8CEFFEAD8A7C00E42DF509EC3EF508D1
:10021C00E4F58CF58AAE08AF097D2F12011CEEF5C2
:06022C0010750F00FF2217
:10018300AE0FAF107C037DE812012EAA04AB057DF0
:10019300647C00AF03AE0212012E8F0A7D647C00E3
:1001A300AF03AE0212012E7E007F0ACFCDCFCECC9D
:1001B300CE12012E8F0BAE0FAF107C007D641201A7
:1001C3002E7E007F64CFCDCFCECCCE12012E7E000B
:0E01D3007F0ACFCDCFCECCCE12012E8D0C22C6
:10009200C3E51094F4E50F9401500DE5109402E5C8
:1000A2000F94004003300038C200E4F50FF510F55C
:1000B2008CF58AFB758040EB14600B1460102402EF
:1000C2007012C2A28002D2A2C2A3C2A48006C2A29D
:1000D200D2A3C2A47F027E001202320BBB03D5223E
:1000E200C2A2C2A3C2A4E50A90027D93F5807F0357
:1000F2007E00120232D2A2C2A3C2A4E50B93F58003
:100102007F027E00120232C2A2D2A3C2A4E50C93E5
:09011200F5807F017E001202322B
:01011B0022C1
:1001E100758901E4F58CF58AD2AFD2A91202523099
:1001F100B4FDD28C20B4FDC28C12020C1201831208
:0B02010000927F5A7E0012023280E162
:030003000202886E
:09028800758C00758A00D2003269
:100012000201E1E493A3F8E493A34003F68001F222
:1000220008DFF48029E493A3F85407240CC8C333EF
:10003200C4540F4420C8834004F456800146F6DFBE
:10004200E4800B010204081020408090026EE47EDE
:10005200019360BCA3FF543F30E509541FFEE493B3
:10006200A360010ECF54C025E060A840B8E493A37A
:10007200FAE493A3F8E493A3C8C582C8CAC583CAA5
:10008200F0A3C8C582C8CAC583CADFE9DEE780BE5D
:01027C000081
:10011C00EF8DF0A4A8F0CF8CF0A428CE8DF0A42EF7
:02012C00FE22B1
:10012E00BC000BBE0029EF8DF084FFADF022E4CCB5
:10013E00F875F008EF2FFFEE33FEEC33FCEE9DEC7E
:10014E00984005FCEE9DFE0FD5F0E9E4CEFD22EDC4
:10015E00F8F5F0EE8420D21CFEADF075F008EF2F0E
:10016E00FFED33FD4007985006D5F0F222C398FDFF
:05017E000FD5F0EA229C
:00000001FF
